{
  "_format": "hh-sol-artifact-1",
  "contractName": "RewardMechanism",
  "sourceName": "contracts/RewardMechanism.sol",
  "abi": [
    {
      "inputs": [
        {
          "internalType": "address",
          "name": "_rewardTokenAddress",
          "type": "address"
        }
      ],
      "stateMutability": "nonpayable",
      "type": "constructor"
    },
    {
      "inputs": [
        {
          "internalType": "address",
          "name": "owner",
          "type": "address"
        }
      ],
      "name": "OwnableInvalidOwner",
      "type": "error"
    },
    {
      "inputs": [
        {
          "internalType": "address",
          "name": "account",
          "type": "address"
        }
      ],
      "name": "OwnableUnauthorizedAccount",
      "type": "error"
    },
    {
      "inputs": [],
      "name": "RM_AmountMustBePositive",
      "type": "error"
    },
    {
      "inputs": [],
      "name": "RM_InsufficientContractBalance",
      "type": "error"
    },
    {
      "inputs": [],
      "name": "RM_InvalidUserAddress",
      "type": "error"
    },
    {
      "inputs": [],
      "name": "RM_NoPendingRequest",
      "type": "error"
    },
    {
      "inputs": [],
      "name": "RM_RequestAlreadyPending",
      "type": "error"
    },
    {
      "inputs": [],
      "name": "RM_TokenTransferFailed",
      "type": "error"
    },
    {
      "inputs": [],
      "name": "RM_ZeroAddress",
      "type": "error"
    },
    {
      "inputs": [],
      "name": "ReentrancyGuardReentrantCall",
      "type": "error"
    },
    {
      "anonymous": false,
      "inputs": [
        {
          "indexed": true,
          "internalType": "address",
          "name": "previousOwner",
          "type": "address"
        },
        {
          "indexed": true,
          "internalType": "address",
          "name": "newOwner",
          "type": "address"
        }
      ],
      "name": "OwnershipTransferred",
      "type": "event"
    },
    {
      "anonymous": false,
      "inputs": [
        {
          "indexed": true,
          "internalType": "address",
          "name": "owner",
          "type": "address"
        },
        {
          "indexed": true,
          "internalType": "address",
          "name": "user",
          "type": "address"
        },
        {
          "indexed": false,
          "internalType": "uint256",
          "name": "amount",
          "type": "uint256"
        }
      ],
      "name": "WithdrawalApproved",
      "type": "event"
    },
    {
      "anonymous": false,
      "inputs": [
        {
          "indexed": true,
          "internalType": "address",
          "name": "owner",
          "type": "address"
        },
        {
          "indexed": true,
          "internalType": "address",
          "name": "user",
          "type": "address"
        },
        {
          "indexed": false,
          "internalType": "uint256",
          "name": "amount",
          "type": "uint256"
        }
      ],
      "name": "WithdrawalRejected",
      "type": "event"
    },
    {
      "anonymous": false,
      "inputs": [
        {
          "indexed": true,
          "internalType": "address",
          "name": "user",
          "type": "address"
        },
        {
          "indexed": false,
          "internalType": "uint256",
          "name": "amount",
          "type": "uint256"
        }
      ],
      "name": "WithdrawalRequested",
      "type": "event"
    },
    {
      "inputs": [
        {
          "internalType": "address",
          "name": "_user",
          "type": "address"
        }
      ],
      "name": "approveWithdrawal",
      "outputs": [],
      "stateMutability": "nonpayable",
      "type": "function"
    },
    {
      "inputs": [
        {
          "internalType": "address",
          "name": "_user",
          "type": "address"
        }
      ],
      "name": "getPendingRequest",
      "outputs": [
        {
          "internalType": "bool",
          "name": "isPending",
          "type": "bool"
        },
        {
          "internalType": "uint256",
          "name": "amount",
          "type": "uint256"
        }
      ],
      "stateMutability": "view",
      "type": "function"
    },
    {
      "inputs": [],
      "name": "getRewardTokenAddress",
      "outputs": [
        {
          "internalType": "address",
          "name": "",
          "type": "address"
        }
      ],
      "stateMutability": "view",
      "type": "function"
    },
    {
      "inputs": [],
      "name": "owner",
      "outputs": [
        {
          "internalType": "address",
          "name": "",
          "type": "address"
        }
      ],
      "stateMutability": "view",
      "type": "function"
    },
    {
      "inputs": [
        {
          "internalType": "address",
          "name": "_user",
          "type": "address"
        }
      ],
      "name": "rejectWithdrawal",
      "outputs": [],
      "stateMutability": "nonpayable",
      "type": "function"
    },
    {
      "inputs": [],
      "name": "renounceOwnership",
      "outputs": [],
      "stateMutability": "nonpayable",
      "type": "function"
    },
    {
      "inputs": [
        {
          "internalType": "uint256",
          "name": "_amount",
          "type": "uint256"
        }
      ],
      "name": "requestWithdrawal",
      "outputs": [],
      "stateMutability": "nonpayable",
      "type": "function"
    },
    {
      "inputs": [
        {
          "internalType": "address",
          "name": "_tokenAddress",
          "type": "address"
        },
        {
          "internalType": "address",
          "name": "_to",
          "type": "address"
        },
        {
          "internalType": "uint256",
          "name": "_amount",
          "type": "uint256"
        }
      ],
      "name": "rescueERC20",
      "outputs": [],
      "stateMutability": "nonpayable",
      "type": "function"
    },
    {
      "inputs": [],
      "name": "rewardToken",
      "outputs": [
        {
          "internalType": "contract IERC20",
          "name": "",
          "type": "address"
        }
      ],
      "stateMutability": "view",
      "type": "function"
    },
    {
      "inputs": [
        {
          "internalType": "address",
          "name": "newOwner",
          "type": "address"
        }
      ],
      "name": "transferOwnership",
      "outputs": [],
      "stateMutability": "nonpayable",
      "type": "function"
    },
    {
      "inputs": [
        {
          "internalType": "address",
          "name": "",
          "type": "address"
        }
      ],
      "name": "withdrawalRequests",
      "outputs": [
        {
          "internalType": "uint256",
          "name": "amount",
          "type": "uint256"
        },
        {
          "internalType": "bool",
          "name": "isPending",
          "type": "bool"
        }
      ],
      "stateMutability": "view",
      "type": "function"
    }
  ],
  "bytecode": "0x60a06040523480156200001157600080fd5b506040516200162f3803806200162f833981810160405281019062000037919062000296565b33600073ffffffffffffffffffffffffffffffffffffffff168173ffffffffffffffffffffffffffffffffffffffff1603620000ad5760006040517f1e4fbdf7000000000000000000000000000000000000000000000000000000008152600401620000a49190620002d9565b60405180910390fd5b620000be816200016860201b60201c565b5060018081905550600073ffffffffffffffffffffffffffffffffffffffff168173ffffffffffffffffffffffffffffffffffffffff16036200012d576040517fe23f02e200000000000000000000000000000000000000000000000000000000815260040160405180910390fd5b8073ffffffffffffffffffffffffffffffffffffffff1660808173ffffffffffffffffffffffffffffffffffffffff168152505050620002f6565b60008060009054906101000a900473ffffffffffffffffffffffffffffffffffffffff169050816000806101000a81548173ffffffffffffffffffffffffffffffffffffffff021916908373ffffffffffffffffffffffffffffffffffffffff1602179055508173ffffffffffffffffffffffffffffffffffffffff168173ffffffffffffffffffffffffffffffffffffffff167f8be0079c531659141344cd1fd0a4f28419497f9722a3daafe3b4186f6b6457e060405160405180910390a35050565b600080fd5b600073ffffffffffffffffffffffffffffffffffffffff82169050919050565b60006200025e8262000231565b9050919050565b620002708162000251565b81146200027c57600080fd5b50565b600081519050620002908162000265565b92915050565b600060208284031215620002af57620002ae6200022c565b5b6000620002bf848285016200027f565b91505092915050565b620002d38162000251565b82525050565b6000602082019050620002f06000830184620002c8565b92915050565b6080516113016200032e600039600081816102d9015281816103ce015281816105e6015281816108dd0152610c2101526113016000f3fe608060405234801561001057600080fd5b50600436106100a95760003560e01c806399e117a01161007157806399e117a0146101545780639ee679e814610172578063a07962361461018e578063b2118a8d146101aa578063f2fde38b146101c6578063f7c618c1146101e2576100a9565b806327b380f3146100ae5780634914fb27146100df578063715018a6146100fb578063817697b1146101055780638da5cb5b14610136575b600080fd5b6100c860048036038101906100c39190610e48565b610200565b6040516100d6929190610ea9565b60405180910390f35b6100f960048036038101906100f49190610e48565b610231565b005b61010361053e565b005b61011f600480360381019061011a9190610e48565b610552565b60405161012d929190610ed2565b60405180910390f35b61013e6105b9565b60405161014b9190610f0a565b60405180910390f35b61015c6105e2565b6040516101699190610f0a565b60405180910390f35b61018c60048036038101906101879190610f51565b61060a565b005b6101a860048036038101906101a39190610e48565b6107a6565b005b6101c460048036038101906101bf9190610f7e565b6108d3565b005b6101e060048036038101906101db9190610e48565b610b99565b005b6101ea610c1f565b6040516101f79190611030565b60405180910390f35b60026020528060005260406000206000915090508060000154908060010160009054906101000a900460ff16905082565b610239610c43565b610241610cca565b6000600260008373ffffffffffffffffffffffffffffffffffffffff1673ffffffffffffffffffffffffffffffffffffffff16815260200190815260200160002090508060010160009054906101000a900460ff166102cc576040517ff44cedc000000000000000000000000000000000000000000000000000000000815260040160405180910390fd5b60008160000154905060007f000000000000000000000000000000000000000000000000000000000000000073ffffffffffffffffffffffffffffffffffffffff166370a08231306040518263ffffffff1660e01b81526004016103309190610f0a565b602060405180830381865afa15801561034d573d6000803e3d6000fd5b505050506040513d601f19601f820116820180604052508101906103719190611060565b9050818110156103ad576040517f016d6e5900000000000000000000000000000000000000000000000000000000815260040160405180910390fd5b60008360010160006101000a81548160ff02191690831515021790555060007f000000000000000000000000000000000000000000000000000000000000000073ffffffffffffffffffffffffffffffffffffffff1663a9059cbb86856040518363ffffffff1660e01b815260040161042792919061108d565b6020604051808303816000875af1158015610446573d6000803e3d6000fd5b505050506040513d601f19601f8201168201806040525081019061046a91906110e2565b9050806104c05760018460010160006101000a81548160ff0219169083151502179055506040517f03bc36e700000000000000000000000000000000000000000000000000000000815260040160405180910390fd5b600084600001819055508473ffffffffffffffffffffffffffffffffffffffff163373ffffffffffffffffffffffffffffffffffffffff167f86130f96d2921566cc4268594a5d6c1e69c17fea5daa5bbfb8aae59710d238a285604051610527919061110f565b60405180910390a35050505061053b610d10565b50565b610546610c43565b6105506000610d19565b565b6000806000600260008573ffffffffffffffffffffffffffffffffffffffff1673ffffffffffffffffffffffffffffffffffffffff16815260200190815260200160002090508060010160009054906101000a900460ff1681600001549250925050915091565b60008060009054906101000a900473ffffffffffffffffffffffffffffffffffffffff16905090565b60007f0000000000000000000000000000000000000000000000000000000000000000905090565b6000339050600260008273ffffffffffffffffffffffffffffffffffffffff1673ffffffffffffffffffffffffffffffffffffffff16815260200190815260200160002060010160009054906101000a900460ff1615610696576040517f58c5e8ca00000000000000000000000000000000000000000000000000000000815260040160405180910390fd5b600082036106d0576040517f1932d62300000000000000000000000000000000000000000000000000000000815260040160405180910390fd5b604051806040016040528083815260200160011515815250600260008373ffffffffffffffffffffffffffffffffffffffff1673ffffffffffffffffffffffffffffffffffffffff1681526020019081526020016000206000820151816000015560208201518160010160006101000a81548160ff0219169083151502179055509050508073ffffffffffffffffffffffffffffffffffffffff167fe670e4e82118d22a1f9ee18920455ebc958bae26a90a05d31d3378788b1b0e448360405161079a919061110f565b60405180910390a25050565b6107ae610c43565b6000600260008373ffffffffffffffffffffffffffffffffffffffff1673ffffffffffffffffffffffffffffffffffffffff16815260200190815260200160002090506000816000015490508160010160009054906101000a900460ff16610842576040517ff44cedc000000000000000000000000000000000000000000000000000000000815260040160405180910390fd5b60008260010160006101000a81548160ff021916908315150217905550600082600001819055508273ffffffffffffffffffffffffffffffffffffffff163373ffffffffffffffffffffffffffffffffffffffff167f08220e18c9f0568f5ca5010bab6edaa15703867a9e002250832596d779e3894f836040516108c6919061110f565b60405180910390a3505050565b6108db610c43565b7f000000000000000000000000000000000000000000000000000000000000000073ffffffffffffffffffffffffffffffffffffffff168373ffffffffffffffffffffffffffffffffffffffff1603610969576040517f08c379a0000000000000000000000000000000000000000000000000000000008152600401610960906111ad565b60405180910390fd5b600073ffffffffffffffffffffffffffffffffffffffff168273ffffffffffffffffffffffffffffffffffffffff16036109cf576040517fe23f02e200000000000000000000000000000000000000000000000000000000815260040160405180910390fd5b60008103610a09576040517f1932d62300000000000000000000000000000000000000000000000000000000815260040160405180910390fd5b600083905060008173ffffffffffffffffffffffffffffffffffffffff166370a08231306040518263ffffffff1660e01b8152600401610a499190610f0a565b602060405180830381865afa158015610a66573d6000803e3d6000fd5b505050506040513d601f19601f82011682018060405250810190610a8a9190611060565b905080831115610acf576040517f08c379a0000000000000000000000000000000000000000000000000000000008152600401610ac69061123f565b60405180910390fd5b60008273ffffffffffffffffffffffffffffffffffffffff1663a9059cbb86866040518363ffffffff1660e01b8152600401610b0c92919061108d565b6020604051808303816000875af1158015610b2b573d6000803e3d6000fd5b505050506040513d601f19601f82011682018060405250810190610b4f91906110e2565b905080610b91576040517f08c379a0000000000000000000000000000000000000000000000000000000008152600401610b88906112ab565b60405180910390fd5b505050505050565b610ba1610c43565b600073ffffffffffffffffffffffffffffffffffffffff168173ffffffffffffffffffffffffffffffffffffffff1603610c135760006040517f1e4fbdf7000000000000000000000000000000000000000000000000000000008152600401610c0a9190610f0a565b60405180910390fd5b610c1c81610d19565b50565b7f000000000000000000000000000000000000000000000000000000000000000081565b610c4b610ddd565b73ffffffffffffffffffffffffffffffffffffffff16610c696105b9565b73ffffffffffffffffffffffffffffffffffffffff1614610cc857610c8c610ddd565b6040517f118cdaa7000000000000000000000000000000000000000000000000000000008152600401610cbf9190610f0a565b60405180910390fd5b565b600260015403610d06576040517f3ee5aeb500000000000000000000000000000000000000000000000000000000815260040160405180910390fd5b6002600181905550565b60018081905550565b60008060009054906101000a900473ffffffffffffffffffffffffffffffffffffffff169050816000806101000a81548173ffffffffffffffffffffffffffffffffffffffff021916908373ffffffffffffffffffffffffffffffffffffffff1602179055508173ffffffffffffffffffffffffffffffffffffffff168173ffffffffffffffffffffffffffffffffffffffff167f8be0079c531659141344cd1fd0a4f28419497f9722a3daafe3b4186f6b6457e060405160405180910390a35050565b600033905090565b600080fd5b600073ffffffffffffffffffffffffffffffffffffffff82169050919050565b6000610e1582610dea565b9050919050565b610e2581610e0a565b8114610e3057600080fd5b50565b600081359050610e4281610e1c565b92915050565b600060208284031215610e5e57610e5d610de5565b5b6000610e6c84828501610e33565b91505092915050565b6000819050919050565b610e8881610e75565b82525050565b60008115159050919050565b610ea381610e8e565b82525050565b6000604082019050610ebe6000830185610e7f565b610ecb6020830184610e9a565b9392505050565b6000604082019050610ee76000830185610e9a565b610ef46020830184610e7f565b9392505050565b610f0481610e0a565b82525050565b6000602082019050610f1f6000830184610efb565b92915050565b610f2e81610e75565b8114610f3957600080fd5b50565b600081359050610f4b81610f25565b92915050565b600060208284031215610f6757610f66610de5565b5b6000610f7584828501610f3c565b91505092915050565b600080600060608486031215610f9757610f96610de5565b5b6000610fa586828701610e33565b9350506020610fb686828701610e33565b9250506040610fc786828701610f3c565b9150509250925092565b6000819050919050565b6000610ff6610ff1610fec84610dea565b610fd1565b610dea565b9050919050565b600061100882610fdb565b9050919050565b600061101a82610ffd565b9050919050565b61102a8161100f565b82525050565b60006020820190506110456000830184611021565b92915050565b60008151905061105a81610f25565b92915050565b60006020828403121561107657611075610de5565b5b60006110848482850161104b565b91505092915050565b60006040820190506110a26000830185610efb565b6110af6020830184610e7f565b9392505050565b6110bf81610e8e565b81146110ca57600080fd5b50565b6000815190506110dc816110b6565b92915050565b6000602082840312156110f8576110f7610de5565b5b6000611106848285016110cd565b91505092915050565b60006020820190506111246000830184610e7f565b92915050565b600082825260208201905092915050565b7f524d3a2043616e6e6f7420726573637565207468652064657369676e6174656460008201527f2072657761726420746f6b656e00000000000000000000000000000000000000602082015250565b6000611197602d8361112a565b91506111a28261113b565b604082019050919050565b600060208201905081810360008301526111c68161118a565b9050919050565b7f524d3a2052657363756520616d6f756e74206578636565647320636f6e74726160008201527f63742062616c616e636500000000000000000000000000000000000000000000602082015250565b6000611229602a8361112a565b9150611234826111cd565b604082019050919050565b600060208201905081810360008301526112588161121c565b9050919050565b7f524d3a20526573637565207472616e73666572206661696c6564000000000000600082015250565b6000611295601a8361112a565b91506112a08261125f565b602082019050919050565b600060208201905081810360008301526112c481611288565b905091905056fea2646970667358221220629749086c303613cb684d6fd620857b799c019ee6e2485d6f361fc02279488b64736f6c63430008140033",
  "linkReferences": {},
  "deployedLinkReferences": {}
}