{
  "_format": "hh-sol-artifact-1",
  "contractName": "UserDatabase",
  "sourceName": "contracts/UserDatabase.sol",
  "abi": [
    {
      "inputs": [
        {
          "internalType": "address",
          "name": "_initialUpdaterAddress",
          "type": "address"
        },
        {
          "internalType": "address",
          "name": "_initialRewardSyncAddress",
          "type": "address"
        }
      ],
      "stateMutability": "nonpayable",
      "type": "constructor"
    },
    {
      "inputs": [],
      "name": "AccessControlBadConfirmation",
      "type": "error"
    },
    {
      "inputs": [
        {
          "internalType": "address",
          "name": "account",
          "type": "address"
        },
        {
          "internalType": "bytes32",
          "name": "neededRole",
          "type": "bytes32"
        }
      ],
      "name": "AccessControlUnauthorizedAccount",
      "type": "error"
    },
    {
      "anonymous": false,
      "inputs": [
        {
          "indexed": true,
          "internalType": "address",
          "name": "userAddress",
          "type": "address"
        },
        {
          "indexed": false,
          "internalType": "uint8",
          "name": "newLevel",
          "type": "uint8"
        }
      ],
      "name": "LastRewardedLevelUpdated",
      "type": "event"
    },
    {
      "anonymous": false,
      "inputs": [
        {
          "indexed": true,
          "internalType": "bytes32",
          "name": "role",
          "type": "bytes32"
        },
        {
          "indexed": true,
          "internalType": "bytes32",
          "name": "previousAdminRole",
          "type": "bytes32"
        },
        {
          "indexed": true,
          "internalType": "bytes32",
          "name": "newAdminRole",
          "type": "bytes32"
        }
      ],
      "name": "RoleAdminChanged",
      "type": "event"
    },
    {
      "anonymous": false,
      "inputs": [
        {
          "indexed": true,
          "internalType": "bytes32",
          "name": "role",
          "type": "bytes32"
        },
        {
          "indexed": true,
          "internalType": "address",
          "name": "account",
          "type": "address"
        },
        {
          "indexed": true,
          "internalType": "address",
          "name": "sender",
          "type": "address"
        }
      ],
      "name": "RoleGranted",
      "type": "event"
    },
    {
      "anonymous": false,
      "inputs": [
        {
          "indexed": true,
          "internalType": "bytes32",
          "name": "role",
          "type": "bytes32"
        },
        {
          "indexed": true,
          "internalType": "address",
          "name": "account",
          "type": "address"
        },
        {
          "indexed": true,
          "internalType": "address",
          "name": "sender",
          "type": "address"
        }
      ],
      "name": "RoleRevoked",
      "type": "event"
    },
    {
      "anonymous": false,
      "inputs": [
        {
          "indexed": true,
          "internalType": "address",
          "name": "userAddress",
          "type": "address"
        },
        {
          "indexed": false,
          "internalType": "string",
          "name": "username",
          "type": "string"
        }
      ],
      "name": "UserRegistered",
      "type": "event"
    },
    {
      "anonymous": false,
      "inputs": [
        {
          "indexed": true,
          "internalType": "address",
          "name": "userAddress",
          "type": "address"
        }
      ],
      "name": "UserRemoved",
      "type": "event"
    },
    {
      "anonymous": false,
      "inputs": [
        {
          "indexed": true,
          "internalType": "address",
          "name": "userAddress",
          "type": "address"
        },
        {
          "indexed": false,
          "internalType": "uint256",
          "name": "newTotalXP",
          "type": "uint256"
        }
      ],
      "name": "UserXPUpdated",
      "type": "event"
    },
    {
      "inputs": [],
      "name": "DEFAULT_ADMIN_ROLE",
      "outputs": [
        {
          "internalType": "bytes32",
          "name": "",
          "type": "bytes32"
        }
      ],
      "stateMutability": "view",
      "type": "function"
    },
    {
      "inputs": [],
      "name": "REWARD_SYNC_ROLE",
      "outputs": [
        {
          "internalType": "bytes32",
          "name": "",
          "type": "bytes32"
        }
      ],
      "stateMutability": "view",
      "type": "function"
    },
    {
      "inputs": [],
      "name": "XP_UPDATER_ROLE",
      "outputs": [
        {
          "internalType": "bytes32",
          "name": "",
          "type": "bytes32"
        }
      ],
      "stateMutability": "view",
      "type": "function"
    },
    {
      "inputs": [],
      "name": "getAllUsers",
      "outputs": [
        {
          "components": [
            {
              "internalType": "address",
              "name": "wallet",
              "type": "address"
            },
            {
              "internalType": "string",
              "name": "username",
              "type": "string"
            },
            {
              "internalType": "uint256",
              "name": "xp",
              "type": "uint256"
            },
            {
              "internalType": "uint8",
              "name": "lastRewardedLevel",
              "type": "uint8"
            }
          ],
          "internalType": "struct UserDatabase.User[]",
          "name": "",
          "type": "tuple[]"
        }
      ],
      "stateMutability": "view",
      "type": "function"
    },
    {
      "inputs": [
        {
          "internalType": "address",
          "name": "_user",
          "type": "address"
        }
      ],
      "name": "getLastRewardedLevel",
      "outputs": [
        {
          "internalType": "uint8",
          "name": "",
          "type": "uint8"
        }
      ],
      "stateMutability": "view",
      "type": "function"
    },
    {
      "inputs": [
        {
          "internalType": "bytes32",
          "name": "role",
          "type": "bytes32"
        }
      ],
      "name": "getRoleAdmin",
      "outputs": [
        {
          "internalType": "bytes32",
          "name": "",
          "type": "bytes32"
        }
      ],
      "stateMutability": "view",
      "type": "function"
    },
    {
      "inputs": [
        {
          "internalType": "address",
          "name": "_user",
          "type": "address"
        }
      ],
      "name": "getUser",
      "outputs": [
        {
          "components": [
            {
              "internalType": "address",
              "name": "wallet",
              "type": "address"
            },
            {
              "internalType": "string",
              "name": "username",
              "type": "string"
            },
            {
              "internalType": "uint256",
              "name": "xp",
              "type": "uint256"
            },
            {
              "internalType": "uint8",
              "name": "lastRewardedLevel",
              "type": "uint8"
            }
          ],
          "internalType": "struct UserDatabase.User",
          "name": "",
          "type": "tuple"
        }
      ],
      "stateMutability": "view",
      "type": "function"
    },
    {
      "inputs": [],
      "name": "getUserCount",
      "outputs": [
        {
          "internalType": "uint256",
          "name": "",
          "type": "uint256"
        }
      ],
      "stateMutability": "view",
      "type": "function"
    },
    {
      "inputs": [
        {
          "internalType": "bytes32",
          "name": "role",
          "type": "bytes32"
        },
        {
          "internalType": "address",
          "name": "account",
          "type": "address"
        }
      ],
      "name": "grantRole",
      "outputs": [],
      "stateMutability": "nonpayable",
      "type": "function"
    },
    {
      "inputs": [
        {
          "internalType": "bytes32",
          "name": "role",
          "type": "bytes32"
        },
        {
          "internalType": "address",
          "name": "account",
          "type": "address"
        }
      ],
      "name": "hasRole",
      "outputs": [
        {
          "internalType": "bool",
          "name": "",
          "type": "bool"
        }
      ],
      "stateMutability": "view",
      "type": "function"
    },
    {
      "inputs": [
        {
          "internalType": "address",
          "name": "_user",
          "type": "address"
        }
      ],
      "name": "removeUser",
      "outputs": [],
      "stateMutability": "nonpayable",
      "type": "function"
    },
    {
      "inputs": [
        {
          "internalType": "bytes32",
          "name": "role",
          "type": "bytes32"
        },
        {
          "internalType": "address",
          "name": "callerConfirmation",
          "type": "address"
        }
      ],
      "name": "renounceRole",
      "outputs": [],
      "stateMutability": "nonpayable",
      "type": "function"
    },
    {
      "inputs": [
        {
          "internalType": "bytes32",
          "name": "role",
          "type": "bytes32"
        },
        {
          "internalType": "address",
          "name": "account",
          "type": "address"
        }
      ],
      "name": "revokeRole",
      "outputs": [],
      "stateMutability": "nonpayable",
      "type": "function"
    },
    {
      "inputs": [
        {
          "internalType": "address",
          "name": "_user",
          "type": "address"
        },
        {
          "internalType": "uint8",
          "name": "_level",
          "type": "uint8"
        }
      ],
      "name": "setLastRewardedLevel",
      "outputs": [],
      "stateMutability": "nonpayable",
      "type": "function"
    },
    {
      "inputs": [
        {
          "internalType": "string",
          "name": "_username",
          "type": "string"
        }
      ],
      "name": "setUser",
      "outputs": [],
      "stateMutability": "nonpayable",
      "type": "function"
    },
    {
      "inputs": [
        {
          "internalType": "bytes4",
          "name": "interfaceId",
          "type": "bytes4"
        }
      ],
      "name": "supportsInterface",
      "outputs": [
        {
          "internalType": "bool",
          "name": "",
          "type": "bool"
        }
      ],
      "stateMutability": "view",
      "type": "function"
    },
    {
      "inputs": [
        {
          "internalType": "address",
          "name": "_user",
          "type": "address"
        },
        {
          "internalType": "uint256",
          "name": "_newTotalXP",
          "type": "uint256"
        }
      ],
      "name": "updateUserXP",
      "outputs": [],
      "stateMutability": "nonpayable",
      "type": "function"
    },
    {
      "inputs": [
        {
          "internalType": "address",
          "name": "",
          "type": "address"
        }
      ],
      "name": "users",
      "outputs": [
        {
          "internalType": "address",
          "name": "wallet",
          "type": "address"
        },
        {
          "internalType": "string",
          "name": "username",
          "type": "string"
        },
        {
          "internalType": "uint256",
          "name": "xp",
          "type": "uint256"
        },
        {
          "internalType": "uint8",
          "name": "lastRewardedLevel",
          "type": "uint8"
        }
      ],
      "stateMutability": "view",
      "type": "function"
    }
  ],
  "bytecode": "0x60806040523480156200001157600080fd5b5060405162002b3638038062002b3683398181016040528101906200003791906200037e565b6200004c6000801b336200019f60201b60201c565b50600073ffffffffffffffffffffffffffffffffffffffff168273ffffffffffffffffffffffffffffffffffffffff1603620000bf576040517f08c379a0000000000000000000000000000000000000000000000000000000008152600401620000b6906200044c565b60405180910390fd5b620000f17f36bb48cd0f15fb47b000163003cdcb6ee06d584089cfd07ddd89cb78e9b8ac10836200019f60201b60201c565b50600073ffffffffffffffffffffffffffffffffffffffff168173ffffffffffffffffffffffffffffffffffffffff160362000164576040517f08c379a00000000000000000000000000000000000000000000000000000000081526004016200015b90620004e4565b60405180910390fd5b620001967f75d59e35f5855d9b7269379cc82c62692f633ecd3845e66d2ad3ba3c5628308d826200019f60201b60201c565b50505062000506565b6000620001b38383620002a260201b60201c565b6200029757600160008085815260200190815260200160002060000160008473ffffffffffffffffffffffffffffffffffffffff1673ffffffffffffffffffffffffffffffffffffffff16815260200190815260200160002060006101000a81548160ff021916908315150217905550620002336200030c60201b60201c565b73ffffffffffffffffffffffffffffffffffffffff168273ffffffffffffffffffffffffffffffffffffffff16847f2f8788117e7eff1d82e926ec794901d17c78024a50270940304540a733656f0d60405160405180910390a4600190506200029c565b600090505b92915050565b600080600084815260200190815260200160002060000160008373ffffffffffffffffffffffffffffffffffffffff1673ffffffffffffffffffffffffffffffffffffffff16815260200190815260200160002060009054906101000a900460ff16905092915050565b600033905090565b600080fd5b600073ffffffffffffffffffffffffffffffffffffffff82169050919050565b6000620003468262000319565b9050919050565b620003588162000339565b81146200036457600080fd5b50565b60008151905062000378816200034d565b92915050565b6000806040838503121562000398576200039762000314565b5b6000620003a88582860162000367565b9250506020620003bb8582860162000367565b9150509250929050565b600082825260208201905092915050565b7f496e697469616c207570646174657220616464726573732063616e6e6f74206260008201527f65207a65726f0000000000000000000000000000000000000000000000000000602082015250565b600062000434602683620003c5565b91506200044182620003d6565b604082019050919050565b60006020820190508181036000830152620004678162000425565b9050919050565b7f496e697469616c207265776172642073796e6320616464726573732063616e6e60008201527f6f74206265207a65726f00000000000000000000000000000000000000000000602082015250565b6000620004cc602a83620003c5565b9150620004d9826200046e565b604082019050919050565b60006020820190508181036000830152620004ff81620004bd565b9050919050565b61262080620005166000396000f3fe608060405234801561001057600080fd5b50600436106101165760003560e01c806391d14854116100a2578063ad70618211610071578063ad70618214610306578063b5cb15f714610324578063d0020fad14610342578063d547741f1461035e578063e2842d791461037a57610116565b806391d14854146102695780639857518814610299578063a217fddf146102b5578063a87430ba146102d357610116565b80634306b11a116100e95780634306b11a146101b3578063549ee123146101cf5780635efc27d6146101ed578063648b037b146102095780636f77926b1461023957610116565b806301ffc9a71461011b578063248a9ca31461014b5780632f2ff15d1461017b57806336568abe14610197575b600080fd5b610135600480360381019061013091906118ca565b610398565b6040516101429190611912565b60405180910390f35b61016560048036038101906101609190611963565b610412565b604051610172919061199f565b60405180910390f35b61019560048036038101906101909190611a18565b610431565b005b6101b160048036038101906101ac9190611a18565b610453565b005b6101cd60048036038101906101c89190611a91565b6104ce565b005b6101d761063f565b6040516101e4919061199f565b60405180910390f35b61020760048036038101906102029190611b07565b610663565b005b610223600480360381019061021e9190611b47565b6107c0565b6040516102309190611b83565b60405180910390f35b610253600480360381019061024e9190611b47565b610819565b6040516102609190611cbe565b60405180910390f35b610283600480360381019061027e9190611a18565b610a52565b6040516102909190611912565b60405180910390f35b6102b360048036038101906102ae9190611b47565b610abc565b005b6102bd610c7f565b6040516102ca919061199f565b60405180910390f35b6102ed60048036038101906102e89190611b47565b610c86565b6040516102fd9493929190611d48565b60405180910390f35b61030e610d6b565b60405161031b919061199f565b60405180910390f35b61032c610d8f565b6040516103399190611d94565b60405180910390f35b61035c60048036038101906103579190611ee4565b610d9c565b005b61037860048036038101906103739190611a18565b610fcd565b005b610382610fef565b60405161038f9190612052565b60405180910390f35b60007f7965db0b000000000000000000000000000000000000000000000000000000007bffffffffffffffffffffffffffffffffffffffffffffffffffffffff1916827bffffffffffffffffffffffffffffffffffffffffffffffffffffffff1916148061040b575061040a8261122f565b5b9050919050565b6000806000838152602001908152602001600020600101549050919050565b61043a82610412565b61044381611299565b61044d83836112ad565b50505050565b61045b61139e565b73ffffffffffffffffffffffffffffffffffffffff168173ffffffffffffffffffffffffffffffffffffffff16146104bf576040517f6697b23200000000000000000000000000000000000000000000000000000000815260040160405180910390fd5b6104c982826113a6565b505050565b7f75d59e35f5855d9b7269379cc82c62692f633ecd3845e66d2ad3ba3c5628308d6104f881611299565b6000600160008573ffffffffffffffffffffffffffffffffffffffff1673ffffffffffffffffffffffffffffffffffffffff1681526020019081526020016000209050600073ffffffffffffffffffffffffffffffffffffffff168160000160009054906101000a900473ffffffffffffffffffffffffffffffffffffffff1673ffffffffffffffffffffffffffffffffffffffff16036105ce576040517f08c379a00000000000000000000000000000000000000000000000000000000081526004016105c5906120c0565b60405180910390fd5b828160030160006101000a81548160ff021916908360ff1602179055508373ffffffffffffffffffffffffffffffffffffffff167f90b9d84179ddefff62802a2d05903063207cffd49c8e1cc4f089d46a66937025846040516106319190611b83565b60405180910390a250505050565b7f36bb48cd0f15fb47b000163003cdcb6ee06d584089cfd07ddd89cb78e9b8ac1081565b7f36bb48cd0f15fb47b000163003cdcb6ee06d584089cfd07ddd89cb78e9b8ac1061068d81611299565b6000600160008573ffffffffffffffffffffffffffffffffffffffff1673ffffffffffffffffffffffffffffffffffffffff1681526020019081526020016000209050600073ffffffffffffffffffffffffffffffffffffffff168160000160009054906101000a900473ffffffffffffffffffffffffffffffffffffffff1673ffffffffffffffffffffffffffffffffffffffff1603610763576040517f08c379a000000000000000000000000000000000000000000000000000000000815260040161075a906120c0565b60405180910390fd5b8281600201819055508373ffffffffffffffffffffffffffffffffffffffff167fe67a689965dad4d994e0007fc3a62be332d873834a76f0b1536baa415b57a655846040516107b29190611d94565b60405180910390a250505050565b6000600160008373ffffffffffffffffffffffffffffffffffffffff1673ffffffffffffffffffffffffffffffffffffffff16815260200190815260200160002060030160009054906101000a900460ff169050919050565b6108216117c0565b600073ffffffffffffffffffffffffffffffffffffffff16600160008473ffffffffffffffffffffffffffffffffffffffff1673ffffffffffffffffffffffffffffffffffffffff16815260200190815260200160002060000160009054906101000a900473ffffffffffffffffffffffffffffffffffffffff1673ffffffffffffffffffffffffffffffffffffffff16036108f2576040517f08c379a00000000000000000000000000000000000000000000000000000000081526004016108e9906120c0565b60405180910390fd5b600160008373ffffffffffffffffffffffffffffffffffffffff1673ffffffffffffffffffffffffffffffffffffffff1681526020019081526020016000206040518060800160405290816000820160009054906101000a900473ffffffffffffffffffffffffffffffffffffffff1673ffffffffffffffffffffffffffffffffffffffff1673ffffffffffffffffffffffffffffffffffffffff1681526020016001820180546109a29061210f565b80601f01602080910402602001604051908101604052809291908181526020018280546109ce9061210f565b8015610a1b5780601f106109f057610100808354040283529160200191610a1b565b820191906000526020600020905b8154815290600101906020018083116109fe57829003601f168201915b50505050508152602001600282015481526020016003820160009054906101000a900460ff1660ff1660ff16815250509050919050565b600080600084815260200190815260200160002060000160008373ffffffffffffffffffffffffffffffffffffffff1673ffffffffffffffffffffffffffffffffffffffff16815260200190815260200160002060009054906101000a900460ff16905092915050565b6000801b610ac981611299565b600073ffffffffffffffffffffffffffffffffffffffff16600160008473ffffffffffffffffffffffffffffffffffffffff1673ffffffffffffffffffffffffffffffffffffffff16815260200190815260200160002060000160009054906101000a900473ffffffffffffffffffffffffffffffffffffffff1673ffffffffffffffffffffffffffffffffffffffff1603610b9a576040517f08c379a0000000000000000000000000000000000000000000000000000000008152600401610b91906120c0565b60405180910390fd5b610ba382611498565b600160008373ffffffffffffffffffffffffffffffffffffffff1673ffffffffffffffffffffffffffffffffffffffff168152602001908152602001600020600080820160006101000a81549073ffffffffffffffffffffffffffffffffffffffff0219169055600182016000610c1a9190611801565b60028201600090556003820160006101000a81549060ff021916905550508173ffffffffffffffffffffffffffffffffffffffff167fe9dce8c992623ce791725b21e857e33248d1f190a25b5168313420eebdaae99d60405160405180910390a25050565b6000801b81565b60016020528060005260406000206000915090508060000160009054906101000a900473ffffffffffffffffffffffffffffffffffffffff1690806001018054610ccf9061210f565b80601f0160208091040260200160405190810160405280929190818152602001828054610cfb9061210f565b8015610d485780601f10610d1d57610100808354040283529160200191610d48565b820191906000526020600020905b815481529060010190602001808311610d2b57829003601f168201915b5050505050908060020154908060030160009054906101000a900460ff16905084565b7f75d59e35f5855d9b7269379cc82c62692f633ecd3845e66d2ad3ba3c5628308d81565b6000600280549050905090565b600073ffffffffffffffffffffffffffffffffffffffff16600160003373ffffffffffffffffffffffffffffffffffffffff1673ffffffffffffffffffffffffffffffffffffffff16815260200190815260200160002060000160009054906101000a900473ffffffffffffffffffffffffffffffffffffffff1673ffffffffffffffffffffffffffffffffffffffff1614610e6d576040517f08c379a0000000000000000000000000000000000000000000000000000000008152600401610e649061218c565b60405180910390fd5b60405180608001604052803373ffffffffffffffffffffffffffffffffffffffff16815260200182815260200160008152602001600060ff16815250600160003373ffffffffffffffffffffffffffffffffffffffff1673ffffffffffffffffffffffffffffffffffffffff16815260200190815260200160002060008201518160000160006101000a81548173ffffffffffffffffffffffffffffffffffffffff021916908373ffffffffffffffffffffffffffffffffffffffff1602179055506020820151816001019081610f449190612358565b506040820151816002015560608201518160030160006101000a81548160ff021916908360ff160217905550905050610f7c336116c0565b3373ffffffffffffffffffffffffffffffffffffffff167f48cac28ad4dc618e15f4c2dd5e97751182f166de97b25618318b2112aa951a2f82604051610fc2919061242a565b60405180910390a250565b610fd682610412565b610fdf81611299565b610fe983836113a6565b50505050565b60606000600280549050905060008167ffffffffffffffff81111561101757611016611db9565b5b60405190808252806020026020018201604052801561105057816020015b61103d6117c0565b8152602001906001900390816110355790505b50905060005b828110156112265760016000600283815481106110765761107561244c565b5b9060005260206000200160009054906101000a900473ffffffffffffffffffffffffffffffffffffffff1673ffffffffffffffffffffffffffffffffffffffff1673ffffffffffffffffffffffffffffffffffffffff1681526020019081526020016000206040518060800160405290816000820160009054906101000a900473ffffffffffffffffffffffffffffffffffffffff1673ffffffffffffffffffffffffffffffffffffffff1673ffffffffffffffffffffffffffffffffffffffff16815260200160018201805461114c9061210f565b80601f01602080910402602001604051908101604052809291908181526020018280546111789061210f565b80156111c55780601f1061119a576101008083540402835291602001916111c5565b820191906000526020600020905b8154815290600101906020018083116111a857829003601f168201915b50505050508152602001600282015481526020016003820160009054906101000a900460ff1660ff1660ff16815250508282815181106112085761120761244c565b5b6020026020010181905250808061121e906124aa565b915050611056565b50809250505090565b60007f01ffc9a7000000000000000000000000000000000000000000000000000000007bffffffffffffffffffffffffffffffffffffffffffffffffffffffff1916827bffffffffffffffffffffffffffffffffffffffffffffffffffffffff1916149050919050565b6112aa816112a561139e565b61176f565b50565b60006112b98383610a52565b61139357600160008085815260200190815260200160002060000160008473ffffffffffffffffffffffffffffffffffffffff1673ffffffffffffffffffffffffffffffffffffffff16815260200190815260200160002060006101000a81548160ff02191690831515021790555061133061139e565b73ffffffffffffffffffffffffffffffffffffffff168273ffffffffffffffffffffffffffffffffffffffff16847f2f8788117e7eff1d82e926ec794901d17c78024a50270940304540a733656f0d60405160405180910390a460019050611398565b600090505b92915050565b600033905090565b60006113b28383610a52565b1561148d57600080600085815260200190815260200160002060000160008473ffffffffffffffffffffffffffffffffffffffff1673ffffffffffffffffffffffffffffffffffffffff16815260200190815260200160002060006101000a81548160ff02191690831515021790555061142a61139e565b73ffffffffffffffffffffffffffffffffffffffff168273ffffffffffffffffffffffffffffffffffffffff16847ff6391f5c32d9c69d2a47ea670b442974b53935d1edc7fd64eb21e047a839171b60405160405180910390a460019050611492565b600090505b92915050565b6000600360008373ffffffffffffffffffffffffffffffffffffffff1673ffffffffffffffffffffffffffffffffffffffff1681526020019081526020016000205490506002805490508110611523576040517f08c379a000000000000000000000000000000000000000000000000000000000815260040161151a9061253e565b60405180910390fd5b6001600280549050611535919061255e565b811461163257600060026001600280549050611551919061255e565b815481106115625761156161244c565b5b9060005260206000200160009054906101000a900473ffffffffffffffffffffffffffffffffffffffff16905080600283815481106115a4576115a361244c565b5b9060005260206000200160006101000a81548173ffffffffffffffffffffffffffffffffffffffff021916908373ffffffffffffffffffffffffffffffffffffffff16021790555081600360008373ffffffffffffffffffffffffffffffffffffffff1673ffffffffffffffffffffffffffffffffffffffff16815260200190815260200160002081905550505b600280548061164457611643612592565b5b6001900381819060005260206000200160006101000a81549073ffffffffffffffffffffffffffffffffffffffff02191690559055600360008373ffffffffffffffffffffffffffffffffffffffff1673ffffffffffffffffffffffffffffffffffffffff168152602001908152602001600020600090555050565b600280549050600360008373ffffffffffffffffffffffffffffffffffffffff1673ffffffffffffffffffffffffffffffffffffffff168152602001908152602001600020819055506002819080600181540180825580915050600190039060005260206000200160009091909190916101000a81548173ffffffffffffffffffffffffffffffffffffffff021916908373ffffffffffffffffffffffffffffffffffffffff16021790555050565b6117798282610a52565b6117bc5780826040517fe2517d3f0000000000000000000000000000000000000000000000000000000081526004016117b39291906125c1565b60405180910390fd5b5050565b6040518060800160405280600073ffffffffffffffffffffffffffffffffffffffff1681526020016060815260200160008152602001600060ff1681525090565b50805461180d9061210f565b6000825580601f1061181f575061183e565b601f01602090049060005260206000209081019061183d9190611841565b5b50565b5b8082111561185a576000816000905550600101611842565b5090565b6000604051905090565b600080fd5b600080fd5b60007fffffffff0000000000000000000000000000000000000000000000000000000082169050919050565b6118a781611872565b81146118b257600080fd5b50565b6000813590506118c48161189e565b92915050565b6000602082840312156118e0576118df611868565b5b60006118ee848285016118b5565b91505092915050565b60008115159050919050565b61190c816118f7565b82525050565b60006020820190506119276000830184611903565b92915050565b6000819050919050565b6119408161192d565b811461194b57600080fd5b50565b60008135905061195d81611937565b92915050565b60006020828403121561197957611978611868565b5b60006119878482850161194e565b91505092915050565b6119998161192d565b82525050565b60006020820190506119b46000830184611990565b92915050565b600073ffffffffffffffffffffffffffffffffffffffff82169050919050565b60006119e5826119ba565b9050919050565b6119f5816119da565b8114611a0057600080fd5b50565b600081359050611a12816119ec565b92915050565b60008060408385031215611a2f57611a2e611868565b5b6000611a3d8582860161194e565b9250506020611a4e85828601611a03565b9150509250929050565b600060ff82169050919050565b611a6e81611a58565b8114611a7957600080fd5b50565b600081359050611a8b81611a65565b92915050565b60008060408385031215611aa857611aa7611868565b5b6000611ab685828601611a03565b9250506020611ac785828601611a7c565b9150509250929050565b6000819050919050565b611ae481611ad1565b8114611aef57600080fd5b50565b600081359050611b0181611adb565b92915050565b60008060408385031215611b1e57611b1d611868565b5b6000611b2c85828601611a03565b9250506020611b3d85828601611af2565b9150509250929050565b600060208284031215611b5d57611b5c611868565b5b6000611b6b84828501611a03565b91505092915050565b611b7d81611a58565b82525050565b6000602082019050611b986000830184611b74565b92915050565b611ba7816119da565b82525050565b600081519050919050565b600082825260208201905092915050565b60005b83811015611be7578082015181840152602081019050611bcc565b60008484015250505050565b6000601f19601f8301169050919050565b6000611c0f82611bad565b611c198185611bb8565b9350611c29818560208601611bc9565b611c3281611bf3565b840191505092915050565b611c4681611ad1565b82525050565b611c5581611a58565b82525050565b6000608083016000830151611c736000860182611b9e565b5060208301518482036020860152611c8b8282611c04565b9150506040830151611ca06040860182611c3d565b506060830151611cb36060860182611c4c565b508091505092915050565b60006020820190508181036000830152611cd88184611c5b565b905092915050565b611ce9816119da565b82525050565b600082825260208201905092915050565b6000611d0b82611bad565b611d158185611cef565b9350611d25818560208601611bc9565b611d2e81611bf3565b840191505092915050565b611d4281611ad1565b82525050565b6000608082019050611d5d6000830187611ce0565b8181036020830152611d6f8186611d00565b9050611d7e6040830185611d39565b611d8b6060830184611b74565b95945050505050565b6000602082019050611da96000830184611d39565b92915050565b600080fd5b600080fd5b7f4e487b7100000000000000000000000000000000000000000000000000000000600052604160045260246000fd5b611df182611bf3565b810181811067ffffffffffffffff82111715611e1057611e0f611db9565b5b80604052505050565b6000611e2361185e565b9050611e2f8282611de8565b919050565b600067ffffffffffffffff821115611e4f57611e4e611db9565b5b611e5882611bf3565b9050602081019050919050565b82818337600083830152505050565b6000611e87611e8284611e34565b611e19565b905082815260208101848484011115611ea357611ea2611db4565b5b611eae848285611e65565b509392505050565b600082601f830112611ecb57611eca611daf565b5b8135611edb848260208601611e74565b91505092915050565b600060208284031215611efa57611ef9611868565b5b600082013567ffffffffffffffff811115611f1857611f1761186d565b5b611f2484828501611eb6565b91505092915050565b600081519050919050565b600082825260208201905092915050565b6000819050602082019050919050565b6000608083016000830151611f716000860182611b9e565b5060208301518482036020860152611f898282611c04565b9150506040830151611f9e6040860182611c3d565b506060830151611fb16060860182611c4c565b508091505092915050565b6000611fc88383611f59565b905092915050565b6000602082019050919050565b6000611fe882611f2d565b611ff28185611f38565b93508360208202850161200485611f49565b8060005b8581101561204057848403895281516120218582611fbc565b945061202c83611fd0565b925060208a01995050600181019050612008565b50829750879550505050505092915050565b6000602082019050818103600083015261206c8184611fdd565b905092915050565b7f5573657220646f6573206e6f7420657869737400000000000000000000000000600082015250565b60006120aa601383611cef565b91506120b582612074565b602082019050919050565b600060208201905081810360008301526120d98161209d565b9050919050565b7f4e487b7100000000000000000000000000000000000000000000000000000000600052602260045260246000fd5b6000600282049050600182168061212757607f821691505b60208210810361213a576121396120e0565b5b50919050565b7f5573657220616c72656164792065786973747300000000000000000000000000600082015250565b6000612176601383611cef565b915061218182612140565b602082019050919050565b600060208201905081810360008301526121a581612169565b9050919050565b60008190508160005260206000209050919050565b60006020601f8301049050919050565b600082821b905092915050565b60006008830261220e7fffffffffffffffffffffffffffffffffffffffffffffffffffffffffffffffff826121d1565b61221886836121d1565b95508019841693508086168417925050509392505050565b6000819050919050565b600061225561225061224b84611ad1565b612230565b611ad1565b9050919050565b6000819050919050565b61226f8361223a565b61228361227b8261225c565b8484546121de565b825550505050565b600090565b61229861228b565b6122a3818484612266565b505050565b5b818110156122c7576122bc600082612290565b6001810190506122a9565b5050565b601f82111561230c576122dd816121ac565b6122e6846121c1565b810160208510156122f5578190505b612309612301856121c1565b8301826122a8565b50505b505050565b600082821c905092915050565b600061232f60001984600802612311565b1980831691505092915050565b6000612348838361231e565b9150826002028217905092915050565b61236182611bad565b67ffffffffffffffff81111561237a57612379611db9565b5b612384825461210f565b61238f8282856122cb565b600060209050601f8311600181146123c257600084156123b0578287015190505b6123ba858261233c565b865550612422565b601f1984166123d0866121ac565b60005b828110156123f8578489015182556001820191506020850194506020810190506123d3565b868310156124155784890151612411601f89168261231e565b8355505b6001600288020188555050505b505050505050565b600060208201905081810360008301526124448184611d00565b905092915050565b7f4e487b7100000000000000000000000000000000000000000000000000000000600052603260045260246000fd5b7f4e487b7100000000000000000000000000000000000000000000000000000000600052601160045260246000fd5b60006124b582611ad1565b91507fffffffffffffffffffffffffffffffffffffffffffffffffffffffffffffffff82036124e7576124e661247b565b5b600182019050919050565b7f496e646578206f7574206f6620626f756e647300000000000000000000000000600082015250565b6000612528601383611cef565b9150612533826124f2565b602082019050919050565b600060208201905081810360008301526125578161251b565b9050919050565b600061256982611ad1565b915061257483611ad1565b925082820390508181111561258c5761258b61247b565b5b92915050565b7f4e487b7100000000000000000000000000000000000000000000000000000000600052603160045260246000fd5b60006040820190506125d66000830185611ce0565b6125e36020830184611990565b939250505056fea264697066735822122047d141e635c8faea5c67f370e90160125b3a4935037a9213c777ee04683a1e3c64736f6c63430008140033",
  "linkReferences": {},
  "deployedLinkReferences": {}
}